{
  "_format": "hh-sol-artifact-1",
  "contractName": "Memories",
  "sourceName": "contracts/Memories.sol",
  "abi": [
    {
      "anonymous": false,
      "inputs": [
        {
          "indexed": false,
          "internalType": "bytes32",
          "name": "memoryId",
          "type": "bytes32"
        },
        {
          "indexed": false,
          "internalType": "string",
          "name": "imageUrl",
          "type": "string"
        },
        {
          "indexed": false,
          "internalType": "string",
          "name": "imageDate",
          "type": "string"
        },
        {
          "indexed": false,
          "internalType": "address",
          "name": "owner",
          "type": "address"
        }
      ],
      "name": "NewMemoryCreated",
      "type": "event"
    },
    {
      "inputs": [
        {
          "internalType": "string",
          "name": "imageUrl",
          "type": "string"
        },
        {
          "internalType": "string",
          "name": "imageDate",
          "type": "string"
        }
      ],
      "name": "createNewMemory",
      "outputs": [],
      "stateMutability": "nonpayable",
      "type": "function"
    },
    {
      "inputs": [
        {
          "internalType": "bytes32",
          "name": "",
          "type": "bytes32"
        }
      ],
      "name": "idToMemory",
      "outputs": [
        {
          "internalType": "bytes32",
          "name": "memoryId",
          "type": "bytes32"
        },
        {
          "internalType": "string",
          "name": "imageUrl",
          "type": "string"
        },
        {
          "internalType": "string",
          "name": "imageDate",
          "type": "string"
        },
        {
          "internalType": "address",
          "name": "owner",
          "type": "address"
        }
      ],
      "stateMutability": "view",
      "type": "function"
    }
  ],
  "bytecode": "0x608060405234801561001057600080fd5b506108e4806100206000396000f3fe608060405234801561001057600080fd5b50600436106100365760003560e01c80634154dedf1461003b5780637f5231741461006e575b600080fd5b610055600480360381019061005091906104a9565b61008a565b60405161006594939291906105bf565b60405180910390f35b61008860048036038101906100839190610677565b6101ea565b005b60006020528060005260406000206000915090508060000154908060010180546100b390610727565b80601f01602080910402602001604051908101604052809291908181526020018280546100df90610727565b801561012c5780601f106101015761010080835404028352916020019161012c565b820191906000526020600020905b81548152906001019060200180831161010f57829003601f168201915b50505050509080600201805461014190610727565b80601f016020809104026020016040519081016040528092919081815260200182805461016d90610727565b80156101ba5780601f1061018f576101008083540402835291602001916101ba565b820191906000526020600020905b81548152906001019060200180831161019d57829003601f168201915b5050505050908060030160009054906101000a900473ffffffffffffffffffffffffffffffffffffffff16905084565b6000333086868686604051602001610207969594939291906107e0565b604051602081830303815290604052805190602001209050604051806080016040528082815260200186868080601f016020809104026020016040519081016040528093929190818152602001838380828437600081840152601f19601f82011690508083019250505050505050815260200184848080601f016020809104026020016040519081016040528093929190818152602001838380828437600081840152601f19601f8201169050808301925050505050505081526020013373ffffffffffffffffffffffffffffffffffffffff168152506000808381526020019081526020016000206000820151816000015560208201518160010190805190602001906103169291906103c6565b5060408201518160020190805190602001906103339291906103c6565b5060608201518160030160006101000a81548173ffffffffffffffffffffffffffffffffffffffff021916908373ffffffffffffffffffffffffffffffffffffffff1602179055509050507fb7074db83b11575c528be9c3535fd4baef6f2db4b4248e9ee350719b0ad2efd08186868686336040516103b796959493929190610857565b60405180910390a15050505050565b8280546103d290610727565b90600052602060002090601f0160209004810192826103f4576000855561043b565b82601f1061040d57805160ff191683800117855561043b565b8280016001018555821561043b579182015b8281111561043a57825182559160200191906001019061041f565b5b509050610448919061044c565b5090565b5b8082111561046557600081600090555060010161044d565b5090565b600080fd5b600080fd5b6000819050919050565b61048681610473565b811461049157600080fd5b50565b6000813590506104a38161047d565b92915050565b6000602082840312156104bf576104be610469565b5b60006104cd84828501610494565b91505092915050565b6104df81610473565b82525050565b600081519050919050565b600082825260208201905092915050565b60005b8381101561051f578082015181840152602081019050610504565b8381111561052e576000848401525b50505050565b6000601f19601f8301169050919050565b6000610550826104e5565b61055a81856104f0565b935061056a818560208601610501565b61057381610534565b840191505092915050565b600073ffffffffffffffffffffffffffffffffffffffff82169050919050565b60006105a98261057e565b9050919050565b6105b98161059e565b82525050565b60006080820190506105d460008301876104d6565b81810360208301526105e68186610545565b905081810360408301526105fa8185610545565b905061060960608301846105b0565b95945050505050565b600080fd5b600080fd5b600080fd5b60008083601f84011261063757610636610612565b5b8235905067ffffffffffffffff81111561065457610653610617565b5b6020830191508360018202830111156106705761066f61061c565b5b9250929050565b6000806000806040858703121561069157610690610469565b5b600085013567ffffffffffffffff8111156106af576106ae61046e565b5b6106bb87828801610621565b9450945050602085013567ffffffffffffffff8111156106de576106dd61046e565b5b6106ea87828801610621565b925092505092959194509250565b7f4e487b7100000000000000000000000000000000000000000000000000000000600052602260045260246000fd5b6000600282049050600182168061073f57607f821691505b60208210811415610753576107526106f8565b5b50919050565b60008160601b9050919050565b600061077182610759565b9050919050565b600061078382610766565b9050919050565b61079b6107968261059e565b610778565b82525050565b600081905092915050565b82818337600083830152505050565b60006107c783856107a1565b93506107d48385846107ac565b82840190509392505050565b60006107ec828961078a565b6014820191506107fc828861078a565b60148201915061080d8286886107bb565b915061081a8284866107bb565b9150819050979650505050505050565b600061083683856104f0565b93506108438385846107ac565b61084c83610534565b840190509392505050565b600060808201905061086c60008301896104d6565b818103602083015261087f81878961082a565b9050818103604083015261089481858761082a565b90506108a360608301846105b0565b97965050505050505056fea264697066735822122080d7025c96bb1c0a4d63ae30ab9e43f4e4d40b1e8b3c108f3ff126aaefe7a51d64736f6c63430008090033",
  "linkReferences": {},
  "deployedLinkReferences": {}
}